:020000040000FA
:100000006004001065020000690200006B0200003D
:100010006D0200006F02000071020000000000008D
:10002000000000000000000000000000730200005B
:10003000750200000000000077020000372F00006A
:100040007B0200007B0200007B0200007B020000BC
:100050007B0200007B0200007B0200007B020000AC
:100060007B0200007B0200007B0200007B0200009C
:100070007B0200007B020000DB0A00004110000050
:100080007B0200007B020000C3130000F913000094
:10009000990A0000C90700007B0200007B020000F3
:1000A0007B0200007B0200007B0200007B0200005C
:1000B0002533000003330000AF320000813200001E
:1000C00000F002F800F0BFF80CA030C8083824187F
:1000D0002D18A246671EAB4654465D46AC4201D180
:1000E00000F0B1F87E460F3E0FCCB64601263342F3
:1000F00000D0FB1AA246AB463343184734530000E6
:1001000054530000103A02D378C878C1FAD8520785
:1001100001D330C830C101D504680C6070470000BD
:100120000023002400250026103A01D378C1FBD813
:10013000520700D330C100D50B60704710B56E294F
:1001400002D103F031FD10BD702902D103F09DFEF4
:1001500010BD662902D104F021FD10BD652902D130
:1001600004F01CFD10BD672902D104F017FD10BD7D
:10017000612902D1C046C04610BD03681B0A01D3E5
:1001800080231943692902D103F0B6FA10BD64290E
:1001900002D103F0B1FA10BD752902D103F0ACFA17
:1001A00010BD6F2902D103F01BFE10BD782902D1CA
:1001B00003F058FE10BDE92902D103F0B7FD10BDD0
:1001C000E42902D103F0B2FD10BDF52902D103F0FC
:1001D000ADFD10BDEF2902D103F00EFE10BDF829D0
:1001E00002D103F04DFE10BD0368DB0901D380236B
:1001F0001943632902D103F01BFD10BD732902D1FD
:1002000003F01EFD10BDE32902D104F0B2F810BDC9
:10021000F32902D104F0B5F810BD002010BD1FB5C0
:10022000C046C04604F0FAF804000020002104F0A3
:100230009FFC401C60600020002104F083FCE06013
:100240001FBD10B510BD04F0C2F81146FFF7E7FF5F
:1002500002F072FE04F0E4FB03B4FFF7F2FF03BC0C
:1002600000F009FC08480047FEE7FEE7FEE7FEE76E
:10027000FEE7FEE7FEE7FEE7FEE7FEE70348044988
:10028000024A044B70470000C100000060020010E9
:100290006004001060020010704700007CB51D462D
:1002A00016460C00009001D00019401E084B7B44FC
:1002B0002A4669460190304603F08FFC002C054623
:1002C00003D06946002003F09BFC28467CBD00005B
:1002D000593900000FB4054910B503AA029803F07C
:1002E000B3FC10BC08BC04B0184700001C00001090
:1002F000704770477047000000000000FFFFFFFFDD
:100300003049314A11600121304A116051600021A9
:1003100051600121516000BF2C494968C907C90FCC
:10032000FAD02A4940398868400A40020321014333
:10033000264A403A91602649896B80229143244A9B
:10034000916300BF21494039C968C907C90FF9D075
:1003500003211E4A116301215163002151630121D0
:10036000516300BF1949496BC907C90FFAD0012170
:10037000164A9163144909688900164A11601146AA
:100380000968154A1160704700B502200F494039CD
:100390000860002008620E48806B202188430C49C9
:1003A0008863002300E05B1CFF2BFCD9FFF7A8FF4C
:1003B00006484030006801210904084303494031E0
:1003C000086000BD001BB700000000104080044022
:1003D00000820440040000100800001010B5F3482B
:1003E000006840210843F14908601F2000F0D7F958
:1003F0001E2000F0D4F91D2000F0D1F91C2000F0DF
:10040000CEF910BD70B5049C002806D0012838D064
:1004100002286AD003287BD19CE0002A18D1E44D41
:100420006D6801268E40B543E14E7560002B07D103
:100430003546AD6801268E40B543DD4EB5600EE011
:10044000DB4DAD6801268E403543D94EB56006E0E0
:10045000D74D6D6801268E403543D54E7560002C12
:1004600007D1D34DED6801268E40B543D04EF560DF
:1004700006E0CF4DED6801268E403543CC4EF56049
:100480009DE0002A18D1CB4D6D6801268E40B54302
:10049000C84E7560002B07D13546AD6801268E40E9
:1004A000B543C44EB5600EE0C24DAD6801268E4026
:1004B0003543C04EB56006E0BE4D6D6801268E40E6
:1004C0003543BC4E7560002C07D1BA4DED6801264E
:1004D0008E40B543B74EF56006E0B64DED68012697
:1004E0008E403543B34EF56069E0002A19D1B24D14
:1004F0006D6801268E40B543AF4E7560002B08D164
:100500003546AD6801268E40B543AB4EB5600FE071
:1005100054E0A94DAD6801268E403543A64EB56026
:1005200006E0A54D6D6801268E403543A24E7560EC
:10053000002C07D1A04DED6801268E40B5439E4E9C
:10054000F56006E09C4DED6801268E4035439A4EDD
:10055000F56034E0002A18D1984D6D6801268E4070
:10056000B543964E7560002B07D13546AD68012620
:100570008E40B543914EB5600EE0904DAD680126BA
:100580008E4035438D4EB56006E08C4D6D6801267A
:100590008E403543894E7560002C07D1874DED683C
:1005A00001268E40B543854EF56006E0834DED682B
:1005B00001268E403543814EF56000E000BF00BF4C
:1005C00070BD002806D001280CD0022812D00328C4
:1005D00020D117E0764A126901238B401A43744BED
:1005E0001A6118E0734A126901238B401A43714B58
:1005F0001A6110E0704A126901238B401A436E4B56
:100600001A6108E06D4A126901238B401A436B4B53
:100610001A6100E000BF00BF7047002806D0012823
:100620000CD0022812D0032820D117E0604A1269AA
:1006300001238B409A435E4B1A6118E05D4A1269B0
:1006400001238B409A435B4B1A6110E05A4A1269AE
:1006500001238B409A43584B1A6108E0574A1369AB
:1006600001228A409343554A136100E000BF00BF56
:10067000704710B502460020002A06D0012A0CD08F
:10068000022A12D0032A20D117E0494B9B6901248A
:100690008C40234200D0012018E0464B9B69012486
:1006A0008C40234200D0012010E0434B9B69012481
:1006B0008C40234200D0012008E0404B9B6901247C
:1006C0008C40234200D0012000E000BF00BF10BDDD
:1006D000002806D001280CD0022812D0032820D1EF
:1006E00017E0334AD26901238B401A43304BDA6159
:1006F00018E0304AD26901238B401A432D4BDA614E
:1007000010E02D4AD26901238B401A432A4BDA614B
:1007100008E02A4AD26901238B401A43274BDA6149
:1007200000E000BF00BF704730B513468B40840027
:10073000234D2D5901248C40A4002B5130BD02467D
:1007400090001F4B1B5801208840800018587047AC
:1007500030B5002A11D08300194CE3580124E4037A
:100760001B191B6801248C4023438400144D2C5911
:100770000125ED036419236010E08300104CE35859
:100780000124E4031B191B6801248C40A34384004B
:100790000B4D2C590125ED036419236030BDC206B1
:1007A000D20E01219140074A1160704780800440B9
:1007B00000800050008001500080025000800350F3
:1007C000AC4B000000E100E070B500BF864A9268C3
:1007D000D0B240104007400F032820D1824A52690E
:1007E000D1B29E22114205D0804A11607E4A126821
:1007F000D3B270BDCA07D20F3ED07B4C2468E5B29D
:100800007B4C2268541C7A4E34607A4CA554324694
:100810001268402A30D30022344622602CE002289D
:1008200011D1714C2468E5B2714C2268541C704E91
:100830003460704CA55432461268402A1CD3002202
:100840003446226018E0062807D1684A1268FF245F
:1008500001342243654C22600EE001280CD1624A2B
:100860005269D1B22022114203D00122624C22707F
:1008700002E00022604C227000BFBAE7F8B50446DF
:1008800001205D49087000205949086015200121A8
:1008900081405A4A116000BF5948406AC008C000F0
:1008A000574948620846406A012108435449486252
:1008B0000846806AC008C00088620846806A012134
:1008C00008434F4988624F480068012109030843E3
:1008D0004C4908600120886183204349C860494829
:1008E000866931464848006803F020F80709214628
:1008F000384603F01BF80546280A3B494860E8B231
:1009000008600320C860072088600846466900BF69
:1009100035484069602108406028F9D101E032483B
:10092000066831484069C007C00FF8D11520012181
:100930008140324A803A116000BF05202A49486050
:10094000F8BD0AE000BF284A526920231A42FAD0B3
:100950000278254B1A60401C491E0029F2D17047CD
:1009600000BF2149496920221142FAD01E4908607E
:10097000704700B5034603E018785B1CFFF7F0FFF3
:1009800018780028F8D100BD0FB400B59BB01DA8A1
:100990000090642101A8009B1C9AFFF77FFC01A82E
:1009A000FFF7E7FF002000901BB008BC04B0184719
:1009B0000146164800680E4A1268904211D00D4850
:1009C000124A1268805C087010480068401C0F4A88
:1009D000106010460068402801D3002010600120FC
:1009E00070470020FCE70000008000401800001065
:1009F00010000010BC0000100C00001080E100E0AE
:100A00008040044080800440080000101400001062
:100A100000BF1E49496920221142FAD01B490860D3
:100A2000704710B503460C461846FFF7F1FF10BD9E
:100A300000BF174800680028FBD006201349486013
:100A400000201349086007201049486011480078C9
:100A5000704710B50446FFF7EBFF0346FFF7D8FFDA
:100A600010BD00B503461846FFF7D2FF00BD014692
:100A70000020C043704700BFFEE700BF0348406945
:100A8000C007C00FFAD001480068704700800040DE
:100A900010000010BC000010F849C869C107C90F58
:100AA00007D0F7490968491CF54A11600121F34A4A
:100AB00011620221084207D0F2490968491CF14A33
:100AC00011600221ED4A11620421084204D0EE496E
:100AD0000968491CEC4A1160704710B56220FFF7A5
:100AE0003FFFEA48C469E007C00F07D0E848006844
:100AF000401CE74908600120E449086202200442E2
:100B000007D0E4480068401CE24908600220DF4941
:100B100008620420044204D0DF480068401CDE491B
:100B2000086010BD10B50446002C47D1DB48406872
:100B300001210843D9494860D84880300068C91469
:100B40000843D6498031086002204861D448006AD1
:100B5000C008C000D24908620846006A0121084363
:100B6000CF4908620846406AC008C000486208468B
:100B7000406A01210843CA4948620120C8494031FE
:100B80000863C7490863C5488030006840210843AE
:100B9000C24980310860C2484038C069C008C000FE
:100BA000BF494039C861012202210020FFF7D0FD72
:100BB000012202210020FFF7B7FD54E0B74840684A
:100BC00004210843B5494860B448803000680121D9
:100BD00089040843B149803108600220C861B048E7
:100BE000C069C008C000AE49C8610846C06902219A
:100BF0000843AB49C861AA484030C068C008C0007B
:100C0000A7494031C8600846C06802210843A4498A
:100C10004031C860A2484038806AC008C000A0497E
:100C2000403988620846806A022108439C4940395D
:100C300088629A4880300068402108439749803193
:100C40000860974840388068C008C000944940391F
:100C50008860012200210220FFF77AFD0122002195
:100C60000220FFF761FD10BD10B50446002C69D1CC
:100C70008A48406801210843884948608748803095
:100C80000068C91408438549803108600220486122
:100C90008348006AC008C000814908620846006AAB
:100CA000012108437E4908620846406AC008C00026
:100CB00048620846406A0121084379494862022097
:100CC0007749403108637649C860744880300068CD
:100CD0004021084371498031086071480068C008AC
:100CE000C0006F490860012204210220FFF730FD97
:100CF000012204210220FFF717FD694840380068EF
:100D0000C008C0006649403908600122062102205F
:100D1000FFF71EFD012206210220FFF705FD6048B6
:100D20004038006AC008C0005D49403908620122AD
:100D300007210220FFF70CFD012207210220FFF707
:100D4000F3FC54E055484068042108435349486087
:100D50005248803000680121890408434F4980319E
:100D600008600220C8614E48C069C008C0004C49F4
:100D7000C8610846C069022108434949C86148481A
:100D80004030C068C008C00045494031C8600846CE
:100D9000C0680221084342494031C8604048403899
:100DA000806AC008C0003E49403988620846806AAF
:100DB000022108433A494039886238488030006847
:100DC0004021084335498031086035484038806803
:100DD000C008C00032494039886001220021022049
:100DE000FFF7B6FC012200210220FFF79DFC10BD99
:100DF00070B5054600BF002D16D12A481F4908606E
:100E0000FE200861002404E01C488068C6B2601C13
:100E1000C4B2082CF8DB142000F004F902201749B2
:100E200048600320486115E01E4818490860022008
:100E30000861002404E015488068C6B2601CC4B292
:100E4000082CF8DB0E2000F0EDF802200F49486076
:100E50000320486170BDF8B507460D461646009858
:100E60000090002F31D1681E072109020843034971
:100E700008600846066100241CE0000000000440F1
:100E8000280000102C0000102400001000800540F5
:100E900034000010380000103000001000800440C2
:100EA000404004400707000062488068C0B20090DC
:100EB000601CC4B2082CF7DB142000F0B3F8022049
:100EC0005C4948600320486119E0681E0721090257
:100ED00008435949086008460661002405E0564861
:100EE0008068C0B20090601CC4B2082CF7DB0E20F2
:100EF00000F098F802205049486003204861F8BD8E
:100F000070B500BF00232DE0002815D100BF494D6A
:100F1000ED6812263540022DF9D10D78454EB560A9
:100F2000491C00BF434DED6814263540042DF9D10E
:100F3000404DAD68ECB214E000BF3F4DED681226A5
:100F40003540022DF9D10D783B4EB560491C00BFEC
:100F5000394DED6814263540042DF9D1364DAD6874
:100F6000ECB25B1C9342CFD370BD30B500231FE0C1
:100F700000280ED1FF242F4DAC6000BF2D4CE4683B
:100F800014252C40042CF9D12A4CA4680C70491C5F
:100F90000DE0FF24284DAC6000BF274CE468142509
:100FA0002C40042CF9D1244CA4680C70491C5B1C07
:100FB0009342DDD330BD0246002A19D100BF1D483F
:100FC000C068122318400228F9D11A48816000BF76
:100FD0001848C06810231842FAD100BF1548C068ED
:100FE000142318400428F9D11248806880B2704751
:100FF00000BF1148C068122318400228F9D10E48DA
:10100000816000BF0C48C06810231842FAD100BFAD
:101010000948C068142318400428F9D1064880689C
:1010200080B2E4E7C206D20E01219140034A11606A
:1010300070470000000004400080054000E100E02F
:1010400010B5012080074068C1B24807400F6FD13A
:10105000C810030003F04AFD0CB3071523AB393A5F
:10106000B464AC7496B30020AB4A1060AB4800780F
:10107000012292079060282090610120A84A106008
:10108000A2E00020A74A1060A4480078012292073D
:101090009060282090610220A14A106094E0A0484E
:1010A000006801280DD19C4A1068421C9A4B1A60B6
:1010B0009D4A1268125C01239B079A600420984A9B
:1010C00010600820C20690617EE000BF9248006870
:1010D000964A126890420ED28F4A1068421C8E4B7C
:1010E0001A60914A1268125C01239B079A600420DF
:1010F0008B4A106010E08E480068002806D020203F
:10110000420610600320864A106005E00520844AEC
:1011100010601020820610600820C206906153E023
:1011200083480068012804D104200207906103E08D
:1011300045E00420020710600820C206906143E0E9
:10114000012292079268D3B2764A1068421C754C0D
:101150002260784A1268135420460068744A126864
:10116000904205D204206E4A10600207106005E02C
:1011700005206B4A10600420020790610820C20617
:10118000906121E0012292079268D3B2654A10680B
:10119000421C644C2260674A126813540520604A5E
:1011A0001060102082061060082090610CE000BFE3
:1011B0000820C20690610520594A106004E000BF73
:1011C0000820C206906100BF00BF10BD00210020B2
:1011D000202253061A600BE0514A1268012A01D1FD
:1011E000012006E0544A914201D3002001E0491C4D
:1011F000F2E700BF70471020810608600820886170
:1012000000BF01208007006810210842F9D10120A9
:10121000704710B502464948406802231843474BBF
:10122000586046488030006820231843434B803381
:1012300018604348006B80098001414B18631846D1
:10124000006B012318433E4B18631846406B80091E
:10125000800158631846406B01231843384B58638C
:101260006C201B049861FF20813058611861022AAC
:1012700001D15007C1600F2001238340314C23600E
:1012800000BF402003061860012010BD00B50020FB
:1012900023490860234908601F490860FFF796FF4B
:1012A000012803D0FFF7A7FF002000BD06E01C487F
:1012B0000068052802D1FFF79EFF00E0F7E700BFB6
:1012C0000120F2E770B506460C4615460120304372
:1012D0001249087017480460154805600120134939
:1012E0000860FFF7D3FF124800681149086070BD1D
:1012F00070B506460C461546084806700A48046054
:101300000A48056000200A490860FFF7BFFF074848
:1013100000680649086070BD4C00001064000010B1
:101320003C00001048000010540000106000001045
:101330005C00001058000010FFFFFF000080044018
:101340000040044000E100E070B504460D46002C6A
:101350001AD10220F84948600020C8607D21C900E8
:10136000F648006802F0E2FA6843F3498861FF201A
:101370000860042048610120486000BFEE484068D2
:10138000C007C00FFAD11BE0012C19D10220EC4993
:1013900048600020C8607D21C900E848006802F06C
:1013A000C5FA6843E6498861FF2008600420486167
:1013B0000120486000BFE2484068C007C00FFAD172
:1013C00070BDDD480068C007C00F07D00120DA49B2
:1013D0000860DC480068401CDA490860D6480068AC
:1013E0001021084207D01020D3490860D648006871
:1013F000401CD54908607047D1480068C007C00F3D
:1014000007D00120CE490860D0480068401CCF4971
:101410000860CB4800681021084207D01020C84956
:101420000860CB480068401CC94908607047002824
:1014300003D10121C04A516002E00121C04A51603C
:101440007047002803D10021BB4A516002E000210F
:10145000BB4A516070470146002906D1B64A506820
:1014600002221043B44A506005E0B54A5068022297
:101470001043B34A5060704770B504460D46002CC7
:1014800047D1B4480068012149020843B1490860C6
:10149000B148006AC008C000AF4908620846006A47
:1014A00002210843AC4908620846406AC008C000EF
:1014B00048620846406A02210843A7494862084634
:1014C000806AC008C00088620846806A022108431A
:1014D000A1498862A04880380069C008C0009E49C0
:1014E0008039086108460069022108439A49803919
:1014F0000861002093490860934908608E4885611F
:1015000005208D49886203204861122000F05BF9B4
:1015100022E0012C20D18F480068A10208438D49A8
:1015200008608D484069C008C0008B494861084682
:1015300040690221084388494861002083490860C6
:10154000834908607E48856105207D4988620320C3
:101550004861132000F037F970BD70B504460D46A0
:10156000002C12D17B4800680121490208437949C7
:1015700008600020734908606F48856103206E4948
:101580004861122000F01FF912E0012C10D17148BF
:101590000068A10208436F49086000206B49086099
:1015A00067488561032066494861132000F00BF904
:1015B00070BD30B505460C4613462846FFF741FF7F
:1015C000012D62D163480068A9020843614908609F
:1015D000B320C00018435A49C863D807C00F0ED0C3
:1015E0005D484038C06BC008C0005B494039C863E3
:1015F0000846C06B0321084357494039C86302209D
:1016000003420BD054480068C008C000524908602B
:1016100008460068032108434F490860042003423C
:101620000BD04D480069C008C0004B49086108460E
:1016300000690321084348490861082003420BD090
:1016400045484069C008C0004349486108464069B0
:101650000221084340494861082018433849403175
:1016600048633E4804600068354948623B4800686A
:1016700040088861394800684008C86137480068F8
:10168000400808620815486155E0324800680121A9
:10169000490208432F490860CB20C000184326495F
:1016A000C863022003420BD02B48806AC008C000E8
:1016B000294988620846806A0221084326498862CF
:1016C000042003420ED0244880380069C008C000BE
:1016D00021498039086108460069022108431E49F2
:1016E00080390861082003420ED01B484038406B07
:1016F000C008C0001849403948630846406B0321C0
:101700000843154940394863082018430A494031C5
:10171000486313480460006807494862104800683D
:1017200088610F4800684008C8610D48006840089B
:1017300008620815486130BD0040014008000010F3
:101740000080014068000010700000106C00001064
:101750007400001080800440804004407C00001031
:1017600078000010002816D0002906D0012907D0E3
:10177000022908D003290CD108E0164B9A6109E030
:10178000144BDA6106E0134B1A6203E0114B5A6204
:1017900000E000BF16E0002906D0012907D0022989
:1017A00008D003290CD108E00B4B9A6109E00A4BE1
:1017B000DA6106E0084B1A6203E0074B5A6200E068
:1017C00000BF00BF7047C206D20E01219140034AFC
:1017D00011607047008001400040014000E100E0DE
:1017E000F1B582B02148846940690190204902988E
:1017F000484300900199009802F098F80746019933
:10180000009802F093F80D46002F0ED000260AE053
:1018100000BF16488069A042FBD300BF134880690F
:10182000A042FBD8761CBE42F2D3002D1DD0A542AB
:1018300006D200BF0D488069611B8842FAD814E0C7
:10184000A54205D100BF09488069A042FBD30CE046
:1018500000BF06488069A042FBD300BF03488169EE
:101860002A1B0198801A8142F8D8FEBD00E000E0F2
:1018700080BB000000BF0146421ED0B20029FAD151
:10188000704770B50346002510E000240AE00026EA
:1018900004E0CB20FFF7EEFF701CC6B20F2EF8DB82
:1018A000601CC4B2832CF2DB681CC5B29D42ECDB29
:1018B00070BD10B50446002205210220FEF734FF5A
:1018C000002204210220FEF72FFF21460020FFF70F
:1018D00072FB012204210220FEF726FF01220521CE
:1018E0000220FEF721FF10BD10B50446012205219C
:1018F0000220FEF719FF002204210220FEF714FF48
:1019000021460020FFF757FB012204210220FEF7A9
:101910000BFF012205210220FEF706FF10BD70B566
:1019200004462546E117090F491909110901611AF1
:10193000C8B2FFF7BEFF2546E117090F4919091183
:101940001031C8B2FFF7B5FF70BD10B504462020B6
:10195000FFF7AFFF2046FFF7ACFF10BD70B505469F
:101960000C462120FFF7A5FF2846FFF7A2FF2046DF
:10197000FFF79FFF70BD70B505460C462220FFF7AC
:1019800098FF2846FFF795FF2046FFF792FF70BDAE
:1019900010B50446402121430846FFF78AFF10BDD9
:1019A00010B504468120FFF784FF2046FFF781FF32
:1019B00010BD10B504468D20FFF77BFF1021214399
:1019C0000846FFF776FF10BD10B50446A02121435D
:1019D0000846FFF76EFF10BD10B50446A421214351
:1019E0000846FFF766FF10BD10B50446A621214347
:1019F0000846FFF75EFF10BD10B50446A820FFF7AC
:101A000058FF2046FFF755FF10BD10B50446AE2124
:101A100021430846FFF74DFF10BD10B50446B02125
:101A200021430846FFF745FF10BD10B50446C0210D
:101A300021430846FFF73DFF10BD10B50446D320F3
:101A4000FFF737FF2046FFF734FF10BD10B50446FF
:101A5000D520FFF72EFF2046FFF72BFF10BD10B556
:101A60000446D920FFF725FF2046FFF722FF10BDCF
:101A700010B50446DA20FFF71CFF02212143084677
:101A8000FFF717FF10BD10B50446DB20FFF711FF6D
:101A90002046FFF70EFF10BD10B5E320FFF709FF4A
:101AA00010BD70B50646002410E02046FFF7B5FFD4
:101AB0000020FFF734FF002504E03046FFF714FF55
:101AC000681CC5B2802DF8DB601CC4B2082CECDBAE
:101AD00070BD10B50020FFF7E4FF10BDFFB581B069
:101AE0000D4616461F462C4615E02046FFF795FF8B
:101AF0003846FFF714FF0020009006E00198FFF73A
:101B0000F3FE0098401CC0B200900A9900988842E9
:101B1000F4DB601CC4B2701C8442E6DB05B0F0BD8F
:101B200070B5002413E02046FFF777FF0020FFF791
:101B3000F6FE002507E05520FFF7D6FEAA20FFF7A6
:101B4000D3FE681CC5B2402DF5DB601CC4B2082C66
:101B5000E9DB70BD70B50020FFF75FFF0020FFF7E5
:101B6000DEFE002404E00120FFF7BEFE601CC4B2CC
:101B7000802CF8DB0720FFF750FF0020FFF7CFFE97
:101B8000002404E08020FFF7AFFE601CC4B2802C6C
:101B9000F8DB002411E02046FFF73FFF002508E0B6
:101BA000E8B2FFF7BCFEFF20FFF79EFE28467F301D
:101BB000C5B2802DF4DB601CC4B2082CEBDB70BD19
:101BC000FFB581B007460D46012F02D0022F0BD181
:101BD00004E0A8002818FE49441805E0681E8100AA
:101BE0004018FC49441800BF00BF0398FFF715FFD9
:101BF0000498FFF794FE002605E02078FFF774FEB6
:101C0000641C701CC6B2052EF7DB0020FFF76CFECB
:101C100005B0F0BDFFB581B007460D461E462C4607
:101C2000334660210120039AFFF7CAFF0CE02178B8
:101C300033463846039AFFF7C3FF641CB01DC6B293
:101C40002078002800D100E0F1E700BF05B0F0BD2A
:101C5000FFB583B005460E4617460295344619E097
:101C60002046FFF7DAFE0698FFF759FE00200190A4
:101C70000AE002990878FFF737FE0298401C0290AC
:101C80000198401CC0B201900C9901988842F0DB89
:101C9000601CC4B2781C8442E2DB07B0F0BDFFB523
:101CA00081B00D4614460498203881004018C84978
:101CB00046180198FFF7B1FE002D0BD10020FFF769
:101CC0002EFE002C03D10020FFF70EFE02E0FF20C5
:101CD000FFF70AFE691CC8B2FFF721FE00270DE0DE
:101CE000002C03D13078FFF7FFFD04E03178C943C1
:101CF000C8B2FFF7F9FD761C781CC7B2052FEFDBE1
:101D0000002C03D10020FFF7EFFD02E0FF20FFF7DA
:101D1000EBFD05B0F0BDF8B506460F4614460025AC
:101D2000082E18DA08E023783A4629463046FFF7AD
:101D3000B6FFA81D85B2641C2078002801D00120C0
:101D400000E00020691C89B2802901DA012100E04D
:101D500000210842E7D1F8BDFFB581B015461F4606
:101D6000A320FFF7A6FD0298FFF7A3FD2846FFF783
:101D7000A0FD0198002802D0012825D111E00024FF
:101D80000CE0E0B2FFF704FE002603E0C820FFF7F6
:101D900071FD761C0A988642F8D3E419AC42F0D360
:101DA00012E000240DE0291BC8B2FFF7F1FD002668
:101DB00003E0C820FFF75EFD761C0A988642F8D340
:101DC000E419AC42EFD300BF00BF0020FFF7E0FDF5
:101DD00005B0F0BDF8B504460D4616461F4626214F
:101DE00021430846FFF765FD0020FFF762FD284606
:101DF000FFF75FFD3846FFF75CFD3046FFF759FD02
:101E00002F20FFF756FD0698FFF73BFDF8BDF8B50C
:101E100004460D4616461F46A320FFF74AFD3846E6
:101E2000FFF747FD0698FFF744FD21462931C8B268
:101E3000FFF73FFD0020FFF73CFD2846FFF739FD87
:101E40000898FFF736FD3046FFF733FD0798FFF798
:101E500030FD2F20FFF72DFD0998FFF712FDF8BD8B
:101E600010B52E20FFF725FD10BD10B50120FFF79E
:101E7000CCFD00240CE0E0B2FFF792FDC820FFF794
:101E8000F9FCC820FFF7F6FCC820FFF7F3FC641C40
:101E9000D02CF0D310BD10B5D0240DE0611EC8B217
:101EA000FFF77EFDC820FFF7E5FCC820FFF7E2FC46
:101EB000C820FFF7DFFC641E002CEFD10020FFF7E5
:101EC000A4FD10BD10B50446002C02D0012C0ED18B
:101ED00006E00020FFF799FD0120FFF77DFD06E0F9
:101EE0000020FFF779FD0120FFF78FFD00BF00BF45
:101EF00010BD0120FFF770FD0BE00120FFF785FD0D
:101F00000220FFF7BEFC0020FFF77FFD0220FFF755
:101F1000B8FCF2E710B50020FFF777FD8020FFF74F
:101F200095FD3F20FFF768FD0020FFF786FD0020AC
:101F3000FFF72EFD0020FFF73CFD0220FFF705FD17
:101F40000120FFF741FD0820FFF76FFD1020FFF78C
:101F50008FFDCF20FFF724FD2220FFF780FD4020DA
:101F6000FFF791FD0020FFF737FD0020FFF73CFD54
:101F70000020FFF796FD0120FFF747FD10BD10B5CB
:101F8000012205210220FEF7E3FB0020FFF73DFDC3
:101F90008020FFF75BFD3F20FFF72EFD0020FFF7BD
:101FA0004CFD0020FFF7F4FC0420FFF702FD0220A7
:101FB000FFF7CBFC0120FFF707FD0820FFF735FDF9
:101FC0001020FFF755FDCF20FFF7EAFCF12003E0DA
:101FD0008C4C000041510000FFF741FD4020FFF70D
:101FE00052FD0020FFF7F8FC0020FFF7FDFC002069
:101FF000FFF757FD0120FFF708FD10BD00B587B0C2
:102000005BA207CA04AB07C30020FFF74AFD3020DC
:1020100028230522022100905848FFF719FE0520C9
:10202000FFF72FFCFFF737FF0520FFF72AFCFFF72C
:102030001CFF0520FFF725FC202001234022002162
:1020400000900846FFF788FE0520FFF71AFC2020C5
:1020500001234022002100901846FFF77DFE052055
:10206000FFF70FFCFFF7FCFE0520FFF70AFC01203D
:102070000021202301900093029103900B460A4611
:102080000846FFF7C4FE0520FFF7FBFB01200021F7
:102090001F22202300930192029103900B460A46CF
:1020A0000846FFF7B4FE0520FFF7EBFB02200021F6
:1020B0000122202300930192029103900B460322F8
:1020C0000846FFF7A4FE0520FFF7DBFB02200021F6
:1020D0001F22202300930192029103900B460322BA
:1020E0000120FFF794FE0520FFF7CBFB0220002123
:1020F0000122202300930192029103900B460722B4
:1021000004210120FFF783FE0520FFF7BAFB022020
:1021100000211F22202300930192029103900B467D
:10212000072204210020FFF772FE0520FFF7A9FB1C
:10213000FFF796FE0520FFF7A4FBFF20FFF7B1FC99
:102140000520FFF79EFBFFF7EBFC0520FFF799FB4F
:102150000020FFF7A6FCFFF7FDFC0520FFF791FB31
:102160002523032204A90120FFF754FD07B000BD79
:10217000354E49564953494F4E000000CC4B0000A4
:1021800070B504460D46002211460220FEF7CCFA37
:10219000E800802210436200104301460120FEF750
:1021A0000AFF00210120FEF706FFC6B2012200212E
:1021B0000220FEF7B9FA304670BD10B56120FEF777
:1021C000CFFB02210020FFF7DBFF0446A406A40E8C
:1021D000042C13D100210846FFF7D2FFA149A24ADF
:1021E00012888854A0480088401C9F4908800846EF
:1021F0000088802807DB0020088004E000210846D2
:10220000FFF7BEFF044602210120FFF7B9FF044695
:10221000A406A40E042C13D100210120FFF7B0FF67
:102220009249934A1288885491480088401C9049EA
:10223000088008460088802807DB0020088004E02A
:1022400000210120FFF79CFF044610BD70B5044635
:102250000D461646002211460220FEF765FAE800F8
:102260006200104301460120FEF7A5FE3146012021
:10227000FEF7A1FE012200210220FEF755FA70BDF3
:10228000F8B505460E46BF2203212846FFF7DEFFBC
:1022900002212846FFF774FF044620461021084318
:1022A000024602212846FFF7D1FF032211462846A5
:1022B000FFF7CCFF01212846FFF762FF04462046C6
:1022C00010218843024601212846FFF7BFFF042161
:1022D0002846FFF755FF04462046802188430246E2
:1022E00004212846FFF7B2FF832203212846FFF787
:1022F000ADFF3146E120000301F018FB84B2E2B2E9
:1023000000212846FFF7A2FF221201212846FFF7ED
:102310009DFF032211462846FFF798FF002128461B
:10232000FFF72EFF002203210846FEF711FA0020D6
:1023300003460246032100900846FEF763F8032196
:102340000846FEF73EF9012211462846FFF77EFFB8
:1023500000212846FFF714FFF8BD70B505460C466E
:1023600000BF05212846FFF70BFF20210842F8D0C7
:10237000224600212846FFF769FF70BD10B50446CC
:1023800021460020FFF7E9FF10BD10B5044604E028
:1023900021780020FFF7E1FF641C20780028F7D1A6
:1023A00010BD10B5044621460120FFF7D6FF10BD31
:1023B00010B5044604E021780120FFF7CEFF641C2D
:1023C00020780028F7D110BD0246002A17D12948ED
:1023D0000088254B1B88984229D02248254B1B8812
:1023E000C05C087023480088401C224B18801846A7
:1023F0000088802801DB00201880012070471E48DB
:1024000000881B4B1B88984211D018481A4B1B8818
:10241000C05C087018480088401C174B188018468C
:102420000088802801DB002018800120E6E70020DA
:10243000E4E710B5044621460020FFF7C5FF10BDB4
:1024400010B5044621460120FFF7BEFF10BD10B5B0
:10245000044600E0641C2046FFF7F2FF0028F9D193
:10246000012010BDFC000010800000107C01001055
:1024700084000010820000108600001010B50022B9
:1024800003211046FEF764F9002204210120FEF723
:102490005FF9002208210120FEF75AF900220921E4
:1024A0000120FEF755F900220A210120FEF750F91C
:1024B00000220B210120FEF74BF910BD10B50821B9
:1024C0000120FEF73CF9002801D1012010BD0921AF
:1024D0000120FEF734F9002801D10220F6E70A2195
:1024E0000120FEF72CF9002801D10320EEE70B2193
:1024F0000120FEF724F9002801D10420E6E703219A
:102500000020FEF71CF9002801D10520DEE7042198
:102510000120FEF714F9002801D10620D6E700209B
:10252000D4E7000008B50021009101226946882007
:10253000FEF7DEFE012269468820FEF7C3FE6846EC
:10254000007808BD08B50121009101226946882064
:10255000FEF7CEFE012269468820FEF7B3FE6846EC
:10256000007808BD704708B50021684601708021D9
:102570004170022269468820FEF7BAFEAF48B04992
:10258000086001200004AF49086008BD38B5002488
:1025900004210091012269468820FEF7A9FE01224C
:1025A00069468820FEF78EFE684604780521009172
:1025B000012269468820FEF79BFE01226946882099
:1025C000FEF780FE68460078000204439C480068DD
:1025D00044439C480168204601F0A8F9044620467F
:1025E00038BD38B50546FFF79DFF04460C2120464F
:1025F00088430446A8002043C4B200216846017005
:102600004470022269468820FEF772FE38BD38B554
:102610000446FFF787FF0546AD08AD002846204376
:1026200005460021684601704570022269468820EF
:10263000FEF75EFE002C06D0012C09D0022C0CD037
:10264000032C13D10EE0012000047E4908600DE048
:10265000012000037B49086008E0FF200130794930
:10266000086003E010207749086000BF00BF38BD54
:1026700038B50446FFF766FF05460C212846884317
:102680000546A0002843C5B2012168460170457087
:10269000022269468820FEF72BFE002C06D0012C72
:1026A00008D0022C0AD0032C10D10BE063486449F7
:1026B00008600BE064486249086007E063486049CD
:1026C000086003E062485E49086000BF00BF38BD93
:1026D00038B5044600255B490968614308465849F6
:1026E000096801F023F905460221684601702804B3
:1026F000010E68464170022269468820FEF7F8FD07
:1027000038BD38B5044600254E490968614308467E
:102710004B49096801F00AF9054603216846017032
:102720002804010E68464170022269468820FEF79F
:10273000DFFD38BD38B50546FFF704FF044620210C
:102740002046884304462046284304460121684623
:1027500001704470022269468820FEF7C9FD38BD29
:1027600010B5FFF7EFFE044620202040400910BDC1
:1027700038B5FFF7E7FE044620212046884304468B
:102780004121684601704470022269468820FEF7A4
:10279000AFFD38BD38B5FFF7C5FE044680212046A1
:1027A000884304460021684601704470022269464D
:1027B0008820FEF79DFD40200443002168460170FB
:1027C0004470022269468820FEF792FD38BD10B59C
:1027D00086B0FFF77EF91FA200210846FFF79BFA9B
:1027E00000210120FEF715FDFFF7BCFEFFF7BBFE41
:1027F0000120FFF73DFF19A0FDF76CFD1AE0FFF780
:10280000C5FE0446234616A21421684600F02CFF9C
:102810006A4600210220FFF77EFA214612A0FDF74A
:1028200059FDFF202D30FEF7DBFFFFF747FE06289E
:1028300000D100E0E3E700BF06B010BDCD0300000B
:10284000880000108C000010340F0000D03C000005
:1028500040F300004C696768740000000D0A000036
:102860002564202020200000256420200000000096
:10287000F3B587B00020C449086008460768012204
:1028800005211046FDF764FF002205210120FDF718
:102890004BFF1E20FEF7A4FF012205211046FDF785
:1028A00043FF002205210120FDF752FF00200346CF
:1028B0000246052100900120FDF7A4FD052101201D
:1028C000FDF77FFE002410E0E007C00F00231A464A
:1028D000052100900120FDF795FD00BFAA48006882
:1028E000B842FBD0A8480768641C032CECD3002432
:1028F0006FE0012000231A4605210090FDF782FDBC
:1029000000BFA1480068B842FBD09F4807689F48B5
:102910000068019000200346024605210090012036
:10292000FDF770FD00BF98480068B842FBD096489C
:102930000768964801680198814204D2934901983A
:102940000968461A05E0914801680198081A9049FB
:102950000E1A082C07D26806050E8E48864237D319
:102960000120054334E0102C0BD206984006000EDF
:102970000690884886422BD301210698084306908A
:1029800026E0182C0BD205984006000E05908148D1
:1029900086421DD3012105980843059018E0202C9C
:1029A0000BD204984006000E04907A4886420FD35A
:1029B00001210498084304900AE003984006000EA1
:1029C00003907448864203D301210398084303907F
:1029D000641C282C8DD3012000231A460521009069
:1029E000FDF710FD00BF68480068B842FBD00799AA
:1029F0000598087007990498487008980570089918
:102A0000069848700295029D06982818C0B2029058
:102A1000059902984018C0B2029004990298401893
:102A2000C0B2029003990298884202D1012009B0F5
:102A3000F0BD0020FBE730B589B00025FFF749F86D
:102A400055A200210846FFF766F998E007A908A8F3
:102A5000FFF70EFF0446002C3ED008A80078802126
:102A600008420FD008A800784106490E08A8017056
:102A70004078009008A803784AA2102102A800F02C
:102A8000F3FD09E008A84078009008A8037849A25F
:102A9000102102A800F0E8FD02AA00210220FFF7A1
:102AA0003AF96846407F00906846037F45A21021AE
:102AB00002A800F0D9FD02AA00210320FFF72BF99C
:102AC0006846407F00906846037F08A842780178F6
:102AD00040A0FDF7FFFB02E045A0FDF7FBFB08A8C7
:102AE000007832280FDD002D0DD1012202210020B7
:102AF000FDF71AFE40A200210720FFF70CF944A0C1
:102B0000FDF7E8FB012508A800782D280FDA002D35
:102B10000DD0002202211046FDF706FE42A2002140
:102B20000720FFF7F8F846A0FDF7D4FB0025C820E2
:102B3000FEF756FEFFF7C2FC062800D120E0C820B1
:102B4000FEF74EFEFFF7BAFC062800D118E0C820B9
:102B5000FEF746FEFFF7B2FC062800D110E0C820C1
:102B6000FEF73EFEFFF7AAFC062800D108E0C820C9
:102B7000FEF736FEFFF7A2FC062800D100E065E76D
:102B800000BF09B030BD0000B0000010B40000105C
:102B900080BB00001809000054656D702026204895
:102BA000756D000054656D703A202D25642E2564E6
:102BB0002020000054656D703A2025642E25642085
:102BC0002000000048756D3A202025642E256420E1
:102BD000200000000D0A54656D703A2025642E25F2
:102BE0006420202048756D3A202025642E2564003D
:102BF0000D0A6661696C000054656D703E35302CBD
:102C0000205475726E206F6E2046414E0000000009
:102C10000D0A54656D703E35302C205475726E204F
:102C20006F6E2046414E000054656D703C34352C6B
:102C3000205475726E206F66662046414E0000007B
:102C40000D0A54656D703C34352C205475726E201D
:102C50006F66662046414E0008B5092100910122A9
:102C600069463A20FEF744FB012269463A20FEF706
:102C700029FB6846007808BD08B51621009101229D
:102C800069463A20FEF734FB012269463A20FEF7F6
:102C900019FB6846007808BD38B504461621684619
:102CA00001704470022269463A20FEF721FB38BDCC
:102CB00010B50520FFF7F0FF10BDF8B504460D462E
:102CC000164600BFFFF7C8FFC007C00FFAD00621A5
:102CD0000091012269463A20FEF70AFB012269466B
:102CE0003A20FEF7EFFA6846007840B220700721DC
:102CF0000091012269463A20FEF7FAFA012269465C
:102D00003A20FEF7DFFA6846007840B228700821C2
:102D10000091012269463A20FEF7EAFA012269464B
:102D20003A20FEF7CFFA6846007840B23070F8BD1E
:102D300070B505460024FFF79FFF04460C2120468E
:102D400088430446A8002043C4B22046FFF7A4FFEE
:102D500070BD70B505460024FFF78EFF0446A40839
:102D6000A4002046284304462046FFF795FF70BD87
:102D700070B58AB00024002500260021039102913D
:102D80000191FEF7A6FE3AA200210846FEF7C3FF16
:102D900000210120FEF73DFAFFF78AFF01AA02A9F0
:102DA00003A8FFF78AFF68460C2141564C420821D0
:102DB00041564D42042141564E4254E001AA02A917
:102DC00003A8FFF77AFF6846007B001941B2039120
:102DD0006846007A401941B202916846007980192C
:102DE00041B2019168460C23C35623A2142104A8C2
:102DF00000F03AFC04AA00210220FEF78CFF68468E
:102E00000C2141561FA0FDF765FA68460823C356FA
:102E100020A2142104A800F027FC04AA002103200A
:102E2000FEF779FF6846082141561DA0FDF752FACA
:102E300068460423C3561EA2142104A800F014FC03
:102E400004AA00210420FEF766FF684604214156CB
:102E50001AA0FDF73FFAFA20FEF7C2FCFFF72EFB9F
:102E6000062800D100E0A9E700BF0AB070BD00004D
:102E7000417869732D33000041636320783A20253F
:102E8000642020000D0A41636320783A2025642CD9
:102E90002020000041636320793A2025642020002F
:102EA00041636320793A2025642C20200000000033
:102EB000416363207A3A2025642020004163632027
:102EC0007A3A2025642E200010B5002819DAE24A4B
:102ED00003071B0F083B9B089B00D2588307DC0E9F
:102EE000FF23A3409A434B071B0E8407E40EA34025
:102EF0001A43D94B0407240F083CA408A4001A5114
:102F000018E0D64A03231B02D21883089B00D2582C
:102F10008307DC0EFF23A3409A434B071B0E840755
:102F2000E40EA3401A43CD4B032424021B1984084A
:102F3000A4001A5110BD704786B0002005901421DE
:102F4000684600F0F1FC0024FDF71EFAFDF746FA92
:102F5000C3480069C008C000C1490861084600694B
:102F600001210843BE490861012200210320FDF729
:102F7000EFFB012200210320FDF7D6FB01221146C1
:102F80000320FDF7E5FB012211460320FDF7CCFBF2
:102F9000012202210020FDF7DBFB0122022100209B
:102FA000FDF7C2FBAE484030C06BC008C000AC4962
:102FB0004031C8630846C06B01210843A84940312D
:102FC000C863012211461046FDF7C2FB01221146DB
:102FD0001046FDF7A9FBA34DA348854200D90FE099
:102FE0002802000A401EA149486107210020C04371
:102FF000FFF76AFF00209D4988610720086100BF34
:103000000020FDF731FE022208210020FDF723FFFA
:10301000FEF7B5FFE1204002FDF730FC022115204C
:10302000FFF752FF92A0FDF755F9FA20FEF7D8FB03
:103030000120FDF719FE022208210120FDF70BFFF8
:10304000E12149020120FFF71BF903E105A8FFF781
:10305000F7F9002808D06846007DFDF781FC684636
:10306000007D69460855641C042CEEDB694683A08C
:10307000FDF730F968460078DD287DD16846407854
:10308000030001F033FD0705101B263192C1E0005B
:1030900068468078002805D16846C078002801D1AC
:1030A00000F0D1F9D0E068468078002805D1684664
:1030B000C078002801D100F098F9C5E06846807812
:1030C000002805D16846C078002801D100F062F9D7
:1030D000BAE068468078002805D16846C0780028A4
:1030E00001D100F0F2F9AFE06846807800282BD1DA
:1030F0006846C078002811D1002211460320FDF750
:1031000013FBCC20FFF74DF90420FFF74AF900200C
:10311000FFF747F90020FFF744F945E06846C0781B
:10312000012841D1012200210320FDF7FDFACC2026
:10313000FFF737F90420FFF734F90020FFF731F9E2
:103140000120FFF72EF92FE06846807801282BD167
:103150006846C078002812D1002201210320FDF723
:10316000E3FACC20FFF71DF90420FFF71AF901203C
:10317000FFF717F9002000E067E0FFF712F9684653
:10318000C078012810D1012211460320FDF7CCFAA6
:10319000CC20FFF706F90420FFF703F90120FFF721
:1031A00000F90120FFF7FDF84EE06846807800281E
:1031B00029D16846C078002810D10022022110468B
:1031C000FDF7B2FACC20FFF7ECF80520FFF7E9F89D
:1031D0000020FFF7E6F80020FFF7E3F86846C07824
:1031E000012810D1012202210020FDF79DFACC20F8
:1031F000FFF7D7F80520FFF7D4F80020FFF7D1F844
:103200000120FFF7CEF81FE068468078002819D12A
:103210006846C078002815D1012000F0A1F87D2073
:10322000C000FEF7DDFA002000F09AF8CC20FFF78E
:10323000B8F80620FFF7B5F80020FFF7B2F8002035
:10324000FFF7AFF800E000BF00BF1421684600F0B0
:103250006BFB0024FAE600001CED00E000E100E05A
:103260000040044080BB0000FFFFFF0000E000E0E2
:103270000D0A0D0A5A696742656500002573000052
:1032800010B52F480068401C2D490860012100201E
:10329000FDF7EFF90446002C08D02A480068401CCE
:1032A0002849086001210020FDF712FA10BD10B571
:1032B00025480068401C2449086001210846FDF7A4
:1032C000D8F90446002C08D020480068401C1F494B
:1032D000086001210846FDF7FBF905210120FDF7F3
:1032E000C8F900280CD01A4880691A4908601A48A1
:1032F0000068401C1849086005210120FDF7E8F925
:1033000010BD10B508210220FDF7B3F9002808D040
:1033100012480068401C1149086008210220FDF78E
:10332000D7F910BD10B503210846FDF7A2F9002812
:1033300005D0FEF742FF03210846FDF7C9F910BD8D
:103340009000001094000010980000109C000010E5
:1033500000E000E0B4000010B0000010A400001075
:1033600010B50446002C0ED0012C10D10122994832
:1033700001681046FEF71DF97F209749C8600120BB
:10338000FEF755F804E00120FEF75BF800E000BF0F
:1033900000BF10BD10B586B0FEF79BFB00210120D9
:1033A000FDF737FFFFF7DEF8FFF7DDF80120FFF745
:1033B0005FF9FFF7EBF80446234688A2142168461C
:1033C00000F052F96A4600210220FEF7A4FCCC204E
:1033D000FEF7E7FF0220FEF7E4FF0020FEF7E1FF23
:1033E000E0B2FEF7DEFF06B010BD30B589B00025B3
:1033F000FEF76FFB07A908A8FFF73AFA0446002C6E
:103400001FD06846407F00906846037F76A2102157
:1034100002A800F029F902AA00210120FEF77BFC96
:10342000CC20FEF7BEFF0120FEF7BBFF0020FEF719
:10343000B8FF6946087FFEF7B4FF6946487FFEF78C
:10344000B0FF09B030BD10B588B0FEF742FB06A949
:1034500007A8FFF70DFA0446002C34D06846007F19
:10346000802108420FD06846007F4106490E684619
:103470000177407F00906846037F5FA2102101A87A
:1034800000F0F2F809E06846407F00906846037F4C
:103490005DA2102101A800F0E7F801AA002108466A
:1034A000FEF739FCCC20FEF77CFF0020FEF779FF09
:1034B0000020FEF776FF6946087FFEF772FF694637
:1034C000487FFEF76EFF08B010BD70B58AB00024CB
:1034D000002500260021039102910191FEF7F9FADF
:1034E00000210120FDF795FEFFF7E2FB01AA02A9EA
:1034F00003A8FFF7E2FB68460C2141564C42082125
:1035000041564D42042141564E4201AA02A903A848
:10351000FFF7D3FB6846007B001941B20391684670
:10352000007A401941B2029168460079801941B28F
:10353000019168460C23C35637A2142104A800F059
:1035400093F804AA00210320FEF7E5FB68460C214E
:10355000415634A0FCF7BEFE68460823C35635A288
:10356000142104A800F080F804AA00210420FEF72A
:10357000D2FB68460821415631A0FCF7ABFE6846F5
:103580000423C35632A2142104A800F06DF804AA43
:1035900000210520FEF7BFFB6846042141562FA0FD
:1035A000FCF798FECC20FEF7FCFE0320FEF7F9FEA8
:1035B0000020FEF7F6FE6946087BFEF7F2FE69463C
:1035C000087AFEF7EEFE69460879FEF7EAFE0AB0D1
:1035D00070BD0000B8000010008001406C69676891
:1035E00074203A202564000048756D3A2020256437
:1035F0002E2564202000000054656D703A202D2592
:10360000642E25642020000054656D703A202564E6
:103610002E2564202000000041636320783A202595
:10362000642020000D0A41636320783A2025642C31
:103630002020000041636320793A20256420200087
:1036400041636320793A2025642C2020000000008B
:10365000416363207A3A202564202000416363207F
:103660007A3A2025642E20000FB47CB50C0009AAFC
:10367000009001D00019401E094B7B44694601901F
:10368000089800F0AAFA002C054603D069460020ED
:1036900000F0B6FA28467CBC08BC04B0184700000D
:1036A0008D05000070B50C460546012A05D0287826
:1036B000800600D5EA69002302E0012305E05B1CD7
:1036C000934202D2E05C0028F9D1A869E618C01A3A
:1036D000A861286AC0182862284600F0D4F904E0DE
:1036E0006A682078A968641C9047B442F8D32846D9
:1036F00000F0DFF970BD0000F7B5002575291068EE
:10370000009914A611D000F0E5F9002802DA404231
:1037100011A608E0009909688A0701D50FA602E002
:10372000490704D50EA6012501E000F0DCF9009F51
:103730000024243704E000F0B5FB30313955641C17
:103740000028F8D12B4632462146009800F0D4F9E3
:10375000FEBD0000000000002D0000002B00000056
:1037600020000000F3B50446002081B0206220460E
:10377000E1688847002872D0252802D06268A168D5
:10378000ABE0594F00267F442046E1688847202857
:10379000054608DB312D06D278192038007800283C
:1037A00001D00643F0E7B00701D50420864300208E
:1037B000E0610746A0612A2D0AD0284601F0BAF937
:1037C000002827D0303DB80000190090856119E02D
:1037D0000298BA00121902C8916102902046E1686D
:1037E0008847012F054617D1E06900281FDA2020FD
:1037F00086431CE000980A218069484300994019DB
:10380000303888612046E1688847054601F092F922
:103810000028EFD1012F0AD02E2D08D12046E168D3
:1038200088470546202006437F1C022FC3DBA06982
:10383000002803DA4042A06101200643F00701D0CE
:10384000102086436C2D0BD0682D09D04C2D3CD018
:103850006A2D38D0742D38D07A2D36D016E040E05D
:10386000E1682F4620468847B842054609D16C2FAB
:1038700029D001208002E16806432046884705469A
:1038800004E06C2F1DD0FF2001300643002D28D00E
:1038900028464138192803D80120C00206432035A4
:1038A000204626602946029A1646FCF747FC002867
:1038B00010D001280BD0F61DF008C000083002908F
:1038C00055E74020E1E78020D5E70020D3E7361D0B
:1038D00002964CE762682846A1689047206A401C1F
:1038E00044E7206AFEBD0000CE1B000001E004C0DA
:1038F000091F0429FBD28B0701D50280801CC90750
:1039000000D00270704700290BD0C30702D00270AC
:10391000401C491E022904D3830702D50280801C63
:10392000891EE3E70022EEE70022DFE70022030919
:103930008B422CD3030A8B4211D300239C464EE0CA
:1039400003460B433CD4002243088B4231D3030986
:103950008B421CD3030A8B4201D394463FE0C30938
:103960008B4201D3CB01C01A524183098B4201D350
:103970008B01C01A524143098B4201D34B01C01A3B
:10398000524103098B4201D30B01C01A5241C308B3
:103990008B4201D3CB00C01A524183088B4201D322
:1039A0008B00C01A524143088B4201D34B00C01A0E
:1039B0005241411A00D201465241104670475DE023
:1039C000CA0F00D04942031000D3404253400022A6
:1039D0009C4603098B422DD3030A8B4212D3FC224F
:1039E000890112BA030A8B420CD3890192118B42CE
:1039F00008D3890192118B4204D389013AD09211E4
:103A000000E08909C3098B4201D3CB01C01A52419E
:103A100083098B4201D38B01C01A524143098B4267
:103A200001D34B01C01A524103098B4201D30B0150
:103A3000C01A5241C3088B4201D3CB00C01A524175
:103A400083088B4201D38B00C01A5241D9D243085C
:103A50008B4201D34B00C01A5241411A00D2014699
:103A6000634652415B10104601D34042002B00D503
:103A70004942704763465B1000D3404201B50020C5
:103A8000C046C04602BD70B5044685690068C106DF
:103A900001D5302600E02026C00707D070BD62683F
:103AA0003046A1689047206A401C20626D1EF6D502
:103AB00070BD70B5044685690078C00707D170BD38
:103AC0006268A16820209047206A401C20626D1E19
:103AD000F6D570BD09684A0501D540B27047C905E1
:103AE000FCD500B2704709684A0501D5C0B27047DD
:103AF000C905FCD580B27047FFB504460D4681B0BC
:103B0000243000902168880604D51022E069914392
:103B1000216000E00120A84201DD471B00E00027F2
:103B20000498A1697A191018081AA0612078C006B3
:103B300002D42046FFF7A7FF002608E0039862683A
:103B4000A168805D9047206A401C761C2062049822
:103B50008642F3DB2078C0060AD52046FFF793FFA4
:103B600006E06268A16830209047206A401C20620D
:103B700038467F1E0028F4DC07E000986268A168E0
:103B8000405D9047206A401C206228466D1E002838
:103B9000F3DC2046FFF78DFF2078000602D50220D7
:103BA00005B0F0BD0120FBE711680268006A53050B
:103BB00001D508700AE0D30501D5088006E0130698
:103BC00002D5C21705C101E0520608600120704706
:103BD00001694A1C02610878704700B58FB00291F4
:103BE0000021059105490193794403911146049000
:103BF0006846FFF7B7FD0FB000BD0000E5FFFFFF0F
:103C00000A681070521C0A6070474B680A689A4232
:103C100002D2531C0B601070704710B54369002B23
:103C200002D0C046C04601E0FFF73CFD012010BDB8
:103C30001278014624310A7000224A700122ECE712
:103C400011680022D243E8E7084B70B50D467B446B
:103C5000FFF7C3FF04462846FCF709FF002802D0FF
:103C60000020C04370BD204670BD0000D1CDFFFFD5
:103C7000F7B51546044686B02B497944002703C999
:103C80003E460090019111E007986A467100415A42
:103C900002A800F07AFB411C07D02178890603D5E1
:103CA000E269391891420ED83F18761C20788006B8
:103CB00002D5E069B84206DDAE42E5DB0798710047
:103CC000405A0028E0D1A069C01BA0612046FFF740
:103CD000DAFE154979445A3903C900900020019150
:103CE00016E041006A460798415A02A800F04DFBD1
:103CF0000590401C0AD0002505E0626802A8A16872
:103D0000405D90476D1C05988542F6D30498401C91
:103D1000B0420490E5DB206AC01920622046FFF71C
:103D2000C8FE09B0F0BD0000EE160000F7B5D21DC8
:103D30000025D20815A6D200F52905CA11D0002AFF
:103D400005DA00214042914111A60A4608E0009997
:103D500009688B0701D50FA602E0490701D50EA619
:103D600001251146009F0024243704E000F0AEF83E
:103D700030323A55641C02460A43F7D12B4632468C
:103D800021460098FFF7B8FEFEBD000000000000CD
:103D90002D0000002B0000002000000070B504463C
:103DA0000021243408E05507D2086D0F30356554E2
:103DB0005D07491C2A43DB0815461D43F3D10468FF
:103DC000002310A2250708D520252C400C4304D041
:103DD000C46901230CA2641EC461FFF78DFE70BD8F
:103DE00010B5044621461068FFF77DFE0023024609
:103DF0002046FFF7D3FF10BDD21DD108C9000CC962
:103E0000CCE700000000000030000000F8B50F46CD
:103E10000188090502D5224C7C4402E0204C7C44F8
:103E20000E3405460021243508E016071209360F26
:103E3000A65D6E541E07491C32431B0916461E43DD
:103E4000F3D1224604780023240705D5702F06D02D
:103E5000002901D011320223FFF74EFEF8BD1032C7
:103E60000123F9E770B504460D4621461068FFF7B7
:103E70003AFE0023024629462046FFF7C7FF70BDE1
:103E8000D21DD308DB000CCBC0E730B4036820247C
:103E90001268234303600823C36130BC0023B5E7E5
:103EA0005815000001468008081A02091018020A75
:103EB0001018020C1018C008820012185200891A3B
:103EC00001E00A39401C0A29FBD270470B4670B545
:103ED000024689078008084319469D08141AA9411B
:103EE00025090807054308092C194841250A010638
:103EF0000D43010A2C194141200C0D0428430D0CDF
:103F000000194D41002140194D41C008690708437F
:103F1000E908840F8D002543840024184D4124199D
:103F20006D41121BAB4107E00925ED432C115219DD
:103F300063410024401C61411C460A250026551B94
:103F4000B441F1D270BD00007047FFB50C461E466B
:103F50008FB003CA089009914F007D0D00D16D1EEE
:103F6000002108460020C0460321099A890508401F
:103F7000002A03DA8200801840080840800D0128DA
:103F80000A9002DD0020C0430A90089807430DD034
:103F9000EF48F049281848430714189800281DD006
:103FA0007542291E1DDD0A9842421BE0189801281F
:103FB00002D00020302104E00020F24305E021542B
:103FC000401CB042FBDB30460022189B00212154EC
:103FD0000F998B600A60486013B0F0BDBD1B6D1C6B
:103FE000DFE70A9A002900DA69420BA800F05EFABE
:103FF0000BA803AB07C807C30899099800F0BCFADF
:1040000001910146D44802920918002D00910ADD61
:10401000D14903980A9A4942401803A90390684677
:1040200000F0CFFC07E003990A9A081803A903904F
:10403000684600F09CFC009000040292000C019184
:1040400003D00020C043410800E01046189A002A1F
:1040500003D00022009215461EE0751E05D4FFF71E
:1040600035FF303262556D1EF9D50122084307969F
:1040700002D000227F1C04E02078302801D10022E9
:104080007F1E002A069788D01EE0112D07DAFFF761
:104090001DFF303262556D1C02460A43F5D10843BC
:1040A0000FD10021681E05E0235C625C6354491C4B
:1040B0002254401E8142F7DBA81B401E0795069044
:1040C00002E0009800280AD0079A18990020A0540E
:1040D0000F98079B069A4360026081607CE7112677
:1040E0000020189059E7D21DF0B50D460446D108BE
:1040F00093B0C90003C90C900D9100F005FD024674
:104100000D98C00F01D02D2007E02068810701D550
:104110002B2002E04007C00F4001032A0F9001D07E
:10412000072A05DB03462946204600F07BF90DE10E
:104130002078800601D5E76900E006272846652D2E
:1041400004D0662814D0672D69D12DE00020112FEE
:10415000009001DB112300E07B1C0CAA03A910A82E
:10416000FFF7F3FE1199002610987D1C0E9142E096
:1041700001203B460CAAC0070B900120009003A928
:1041800010A8FFF7E2FE119D129810990026002852
:104190000E9501D1781C0D18781B02D44642761E6C
:1041A0007D1CE81B00903AE0012F00DA0127002077
:1041B000112F009001DD112300E03B460CAA03A95A
:1041C00010A8FFF7C2FE11993D46109800260E91E7
:1041D000217809070BD40E99A94200DA0D4603A9EC
:1041E000012D04DD4A19203AD27F302A06D0B84288
:1041F00001DA011D04DA012100910FE06D1EEFE7E5
:10420000002802DC86192D1A03E0411CA94200DDBA
:104210000D46801B401C00900120C0070B902078A9
:10422000000705D40098A84202DB0020C04300909C
:1042300069460020C8720B98012102AF0337C907F5
:10424000884225D0022010902B2011900B98002836
:104250000BDA40420B902D20119006E00B98FFF7EF
:1042600021FE30317F1E0B9039701099481E0029B5
:104270001090F3DC0B980028F0D111987F1E387055
:104280002088000501D5452000E065207F1E38709C
:1042900001A8C01BC01D0B900F98002800D0012062
:1042A00041190098C01709180B980818A169081A35
:1042B000401EA0612078C00602D42046FFF7E3FB31
:1042C0000F98002805D06268A1689047206A401CBA
:1042D00020622078C00624D52046FFF7D4FB20E0DA
:1042E000002E07DB0E98B04204DD03A86268805DF3
:1042F000A16802E06268A16830209047206A761CBD
:10430000401C20620098401E00900AD100F086F800
:10431000C06862680168405CA1689047206A401CE0
:10432000206228466D1E0028DADC07E062683878D3
:10433000A1687F1C9047206A401C20620B99481E90
:1043400000290B90F2DC2046FFF7B3FB022043E686
:1043500001FCFFFF104D0000E1DFFFFF10B54369D6
:10436000002B02D0C046C04601E0FFF781FC0120CF
:1043700010BD12880146243182840022C2840122A9
:10438000ECE711680022D243E8E770B516460C4608
:10439000054600F03BF80368FF200230C05C0128AE
:1043A00007D0FF2C10D8185D00280DD001202C70EC
:1043B00070BDFF20324621460830C0581B182846E1
:1043C000FF330833984770BD0020C04370BD754669
:1043D00000F02CFBAE46050069465346C008C000FD
:1043E000854618B020B5FBF749FF60BC0027490897
:1043F000B6460026C0C5C0C5C0C5C0C5C0C5C0C57D
:10440000C0C5C0C5403D49008D46704710B500F09D
:1044100005F8001D10BD00BF590700000048704797
:104420001C020010F8B51F46044601230068DB0299
:10443000032601461840072A05DB002801D017A5EE
:1044400006E017A504E0002801D016A500E016A597
:10445000102081432160A069C01E002FA06101D0FF
:10446000401EA0612046FFF70EFB002F09D0384602
:104470006268A1689047206A401C2062C01C2062CC
:1044800006E0206AFAE762682878A1686D1C904708
:10449000761EF8D22046FFF70CFBF8BD4E414E00C9
:1044A0006E616E00494E4600696E6600F7B51646AD
:1044B0008AB0304878446C4603467C33C06F5A68F3
:1044C0009B680DC42B4B7B446E33083303AC0DCB80
:1044D0000DC43720C001081837211B30FFF730FA10
:1044E00005460C46803D1B3C02D56442012000E09D
:1044F0000020002709900FE0E0070BD00C201D4999
:104500007843794432464E394118684600F02FFA14
:104510006B4607C364107F1C002CEDD1154F7F4400
:104520002E3F16E0E80712D02001C01901460EC93F
:10453000069108930792C068F04201D1981908903B
:10454000324606A903A800F012FA03AB07C36D10A8
:10455000641C002DE6D1324669460998002803A85C
:1045600002D000F02EFA01E000F001FA0A9B07C326
:104570000DB0F0BDE40E0000034640000A4610B541
:10458000400D0BD00121C9070F24A40200191C0300
:1045900064082143540D2143D20207E00021012089
:1045A000F2E7D40F490021435200401E0029F8DAF7
:1045B000DB0FDB07184310BDFFB50D46144685B071
:1045C0004868516800F07AFA00910190A868A168E3
:1045D00000F074FA02910390A868616800F06EFA26
:1045E000029A12188242029201D2012000E00020B9
:1045F000019A0B18D2180028019202D08A4202D9DF
:1046000003E08A4201D2012000E00020009908184E
:1046100000906868A16800F051FA029A121882426C
:10462000029201D2012000E00020019A0B18D2185A
:104630000028019202D08A4202D903E08A4201D2C4
:10464000012000E0002000990818009028682168E7
:1046500040004900400849084018EE49471814E056
:1046600001994000C90F0843009001980299400049
:10467000C90F08430190029803994000C90F0843ED
:104680000290039840007F1E039000980028E7DA0C
:104690000898002801D0E04E00E00026B74228DA52
:1046A000F71BF806C00E15D0029B2021091A039AA9
:1046B0008B401A430392029A019BC2408B401A43DB
:1046C0000292019A009BC2408B4000991A430192CA
:1046D000C14000917A110BD06B460320811A01D59D
:1046E000002101E0890059588700401ED951F5D5B5
:1046F000374603980299002800D00120014308980A
:104700000291002808460CD0002800D00120019911
:10471000019A490508430121D20AC902D202019235
:1047200000E001210E9B0122D207012B02D0002BB9
:1047300003D013E0002807D116E0904204D890423D
:104740000CD1019B0B4209D0019B5918019105D155
:104750000099491C009101D17F1C0092002803D0D0
:10476000102108460020C04628682168019B009A55
:104770004840C10F0598C90739430EC009B0F0BDC4
:10478000FFB587B0099A08980899536892684068FD
:10479000896896460022039317469446089A126841
:1047A0005300099A5B081268520052089A1A9B4BF0
:1047B000D4180A9A002A01D0352200E0402206923D
:1047C0000022012315460492DB07059324E0002D07
:1047D00005D175460346039E4D1BB34109D375466B
:1047E0006646039B491B049D9841059B7519AC4681
:1047F0005F4163463B4308D0059B049EDD07760876
:104800002E435B080496059301E0641E521EC50FFB
:10481000ED0749184041521C069B9A42D7DB002DF8
:1048200004D17546039A6B1A824101D203200CE031
:10483000039A0B466B404240134301D1022004E02F
:10484000014301D0012000E00020614601910021D8
:10485000009702910A99002905D061464002014360
:104860006D4B019102E08007002302909C423ADAEE
:104870001A1BD006C00E15D0029D2021019C091ADA
:10488000C5408C402543029C8C4000D00124254328
:10489000019C02953D46C4408D4039462C43C140A1
:1048A0000194009154111DD06D460221002202296D
:1048B0000CD10320001B07E0002804DB8600AE5962
:1048C000002E00D00122401C0328F5DB081B02D576
:1048D00088002A5004E08000285810438A00A8501D
:1048E000491EE3D51C460A98002802980CD00028DF
:1048F00000D001200199019A490508430121D20AFB
:10490000C902D202019200E00121109B0122D207CC
:10491000012B02D0002B03D013E0002807D116E0B2
:10492000904204D890420CD1019B0B4209D0019BCC
:104930005918019105D10099491C009101D1641CBD
:104940000092002803D0102108460020C046089895
:104950000999019A0068096848400099C30F0798AF
:10496000DB0723430360826041600BB0F0BD1FB5DD
:10497000002300920A46014601A8FFF71DFE01A888
:1049800007C804B010BD1FB5012300920A460146B6
:1049900001A8FFF711FE01A80F2407C8A402C30F46
:1049A0004000DB074008001B002900DB0020490015
:1049B00000054908CC0A204349051843D20A11438F
:1049C000DFE71FB5002300920A46014601A8FFF762
:1049D000D7FE01A807C8D4E71FB5012300920A46F5
:1049E000014601A8FFF7CCFE01A80F2407C8A402C6
:1049F000C30F4000DB074008001B002900DB00203C
:104A0000490000054908CC0A204349051843D20A49
:104A10001143B6E702C0FFFF013C0000FF3F00006A
:104A20000446C046C0462046FBF716FC00487047C7
:104A3000FC010010024670B50A4392072AD11E4DB0
:104A4000EE0104C808C9541B9443344017D0D0B2B7
:104A5000D9B2401A2106014310D190B299B2401A3E
:104A6000210401430AD110021902000A090A401A5E
:104A70002102014302D1100E190E401A70BD9A4254
:104A8000DFD010BA19BA884201D9012070BD0020C8
:104A9000C04370BD02780B78401C491C002A09D025
:104AA0009A4207D102780B78401C491C002A01D099
:104AB0009A42EFD0D01A70BD01010101F8B5040C83
:104AC0008BB2264682B25E43104658430D0C370C1B
:104AD000360400218019164679416E43370C36049E
:104AE0008019264679416E438919F8BD30B4744661
:104AF000641E2578641CAB4204D3635D5B00E3183D
:104B000030BC18471D46F8E74900CA02104300D0E0
:104B100004204A0D01D001221043054A490D91425B
:104B200001D102210843012800D10520704700006F
:104B3000FF07000030380A2801D20120704700200A
:104B40007047000010B500290AD00878002807D067
:104B500005487844FFF76EFF002801D0002010BD03
:104B60000248784410BD0000FE080000F60800006E
:104B700010B500290AD00878002807D005487844E5
:104B8000FFF758FF002801D0002010BD02487844EC
:104B900010BD0000EE080000E608000003B4024863
:104BA0007844844603BC604743F5FFFF0000005093
:104BB00000000150000002500000035000000050AF
:104BC0000000015000000250000003500000FCFCF7
:104BD000FCFC000000FCFCFCFC000000E0E0E0E06D
:104BE00060E0E0E0C0000000ECECECEC0000000451
:104BF0003CFCFCF08080F0FCFC3C04000000070F53
:104C00001F1F1C181C1F1F0F070000001F1F1F1F46
:104C1000001F1F1F1F0000001F1F1F1F000000009C
:104C200000010F1F1F1F1F0F010000000080E0E0A8
:104C3000F0703070F0E0E080000000F0F0F0F00084
:104C4000000000000000F0F0F0F0303030303000B4
:104C50000000F0F0F0F03070F0F0E080000F3F3F27
:104C60007F7060707F3F3F0F0000007F7F7F7F601D
:104C70006060600000007F7F7F7F6363636360002C
:104C800000007F7F7F7F60707F7F3F0F000000000C
:104C90000000004F00000007000700147F147F147D
:104CA000242A7F2A122313086462364955225000B1
:104CB00005030000001C2241000041221C001408D2
:104CC0003E081408083E0808005030000008080894
:104CD0000808006060000020100804023E514945A9
:104CE0003E00427F400042615149462141454B31DF
:104CF0001814127F1027454545393C4A494930016F
:104D0000710905033649494936064949291E0036C5
:104D10003600000056360000081422410014141416
:104D20001414004122140802015109063249794144
:104D30003E7E1111117E7F494949363E4141412253
:104D40007F4141221C7F494949417F090909013EB0
:104D50004149497A7F0808087F00417F410020408F
:104D6000413F017F081422417F404040407F020CB8
:104D7000027F7F0408107F3E4141413E7F090909BF
:104D8000063E4151215E7F0919294646494949316C
:104D900001017F01013F4040403F1F2040201F3F55
:104DA0004038403F631408146307087008076151D6
:104DB000494543007F414100020408102000414161
:104DC0007F00040201020440404040400102040010
:104DD0000020545454787F48444438384444442094
:104DE000384444487F3854545418087E0901020658
:104DF0004949493F7F0804047800447D4000204031
:104E0000443D007F1028440000417F40007C04188E
:104E1000047C7C0804047838444444387C1414141A
:104E200008081414187C7C080404084854545420BE
:104E3000043F4440203C4040207C1C2040201C3C3F
:104E40004030403C44281028440C5050503C4464AE
:104E5000544C44000836410000007F0000004136F9
:104E6000080002010204023E5555412200000000E4
:104E70000000007900001824742E24487E49424026
:104E80005D2222225D15167C161500007700000AAF
:104E9000555555280001000100000A0D0A040814A8
:104EA0002A1422040404041C00080808000101015B
:104EB0000101000205020044445F44440000040272
:104EC000017E2020103E060F7F007F001818000092
:104ED0000040502000000A0D0A0022142A1408176E
:104EE00008342A7D1708046A593048454020702943
:104EF0002628707028262970702A252A7072292683
:104F000029707029242970702A2D2A707E117F49FA
:104F1000490E515171117C555654447C5556544498
:104F20007C565556447C5554554400457E440000FB
:104F3000447E450000467D460000457C45007F4993
:104F400049413E7C0A11227D384546443838444662
:104F5000453838464546383846454639384544454B
:104F60003822140814222E5149453A3C4142403C13
:104F70003C4042413C3C4241423C3C4140413C0C73
:104F80001062110C7F1212120C403E01493620555E
:104F900056547820545655782056555678205556F4
:104FA00055782055545578205657567824547854BF
:104FB000580C5252721338555654183854565518C6
:104FC0003856555618385554551800497A4000003F
:104FD000487A4100004A794200004A784200314A4A
:104FE0004E4A307A110A097030494A483030484AEE
:104FF0004930304A494A30304A494A31304A484AB1
:105000003008082A08083864544C3838414220785F
:105010003840422178384241227838424022780C88
:105020005052513C7E141414080C5150513C1E092E
:1050300009295E081515354E384446452030484A42
:105040004920384546452030494A49207C45464557
:10505000382050507C031F151535510E1515354657
:105060007C55565544385556551800447C40007FB1
:105070004844404000497F44007C0812217C78105D
:105080000A09707C0912217C78110A09703847449A
:105090004738304B484B303E417F494938443854BB
:1050A000587C1516354878110A0910485456552071
:1050B000204856552048555655202049565520041D
:1050C000057E0504083C4822013C4245423C3842EA
:1050D0004522783C4340433C38434023780C1160E0
:1050E000110C4466554C44486A5948004464554C78
:1050F0004448685A48004465564D4448695A490036
:105100000002010200000102010000010101000192
:10511000020201000000010000000205020002017D
:105120000201007F05153A503E55554122181408DA
:10513000140C444A4A515151514A4A447442414222
:10514000747E1111117E7F494949367F02010103A6
:10515000704E414E707F4949494161514945437FF5
:105160000808087F3E4949493E00417F41007F08C9
:10517000142241700E010E707F020C027F7F040822
:10518000107F635D495D633E4141413E413F013FC8
:10519000417F09090906635549414101017F010128
:1051A00003017E010308557F550863140814630743
:1051B000487F48075E6101615E384448304C7C2A74
:1051C0002A2A144438040408304B4D5930285454CA
:1051D000442000185552223E0402027C3C4A4A4AAE
:1051E0003C003C4020007C1028444041320C3040C0
:1051F0007E2020103E1C2040201C142B2A2A6038C0
:1052000044444438443C047C4470282424180C1240
:1052100012526038444C5424043C4420003C40402A
:10522000201C18247E241844281028440C107E10BA
:105230000C38443044380A0A4A2A1E044434140CF8
:10524000201078040018084C4838484878484848E6
:1052500028187C08087C082818404848784054548E
:10526000547C001800584038080808080801413DDF
:10527000090710087C02010E0243221E42427E42B0
:105280004222120A7F02423F02423E0A0A7F0A0A73
:10529000084642221E0403423E02424242427E022D
:1052A0004F221F024A4A40201C4222122A46023F35
:1052B000424A46064840201E08464A321E0A4A3ED6
:1052C00009080E004E201E04453D0504007F08100D
:1052D0000044241F04044042424240422A122A064B
:1052E00022127B16220040201F0078000204783F23
:1052F00044444444024242221E0402040830320262
:105300007F0232021222520E002A2A2A4038242218
:10531000207040281028060A3E4A4A4A047F041496
:105320000C4042427E404A4A4A4A7E040545251CBA
:105330000F40201F007C007E40307E402010087E01
:105340004242427E0E0242221E4242402018020485
:10535000010200070507000004000008000000002B
:10536000000000020001000010000000000000002A
:10537000000000003031323334353637383941429D
:1053800043444546403058003031323334353637A7
:10539000383961626364656640307800024000001D
:1053A000000000A00000000005400000000000C850
:1053B000000000000C4000000000409C00000000C5
:1053C000194000000020BCBE000000003440000076
:1053D000BFC91B8E00000004B5400000504BCFD069
:1053E0006607E2CF010000006C4100003E8251AA36
:1053F000DFEEA73401000000D9420000DCB5A0E2D6
:105400003A301F97FFFFFFFFB4450000FD25A0C8FD
:10541000E9A3C14FFFFFFFFFFF3F00000000008036
:1054200000000000FF3F00000000008000000000BE
:105430007C55000000000010BC00000004010000CA
:1054400038560000BC000010A4030000200100003A
:105450001C00000043000000F8FFFFFF0C000000EC
:105460000E0000000F0000002E00000010010000E0
:1054700043000000F8FFFFFF004040404040404034
:105480004040414141414140404040404040404017
:1054900040404040404040404005020202020202BB
:1054A000020202020202020202202020202020200A
:1054B000202020020202020202029090909090901E
:1054C00010101010101010101010101010101010DC
:1054D0001010101002020202020288888888888850
:1054E000080808080808080808080808080808083C
:1054F0000808080802020202400000000000000044
:10550000000000000000000000000000000000009B
:10551000000000000000000000000000000000008B
:10552000000000000000000000000000000000007B
:10553000000000000000000000000000000000006B
:10554000000000000000000000000000000000005B
:10555000000000000000000000000000000000004B
:10556000000000000000000000000000000000003B
:10557000000000000000000000000000001BB70059
:10558000001BB700001BB700010000000000000076
:10559000000000000000000000000000000000000B
:1055A00000000000000000000000000000000000FB
:1055B00000000000000000000000000000000000EB
:1055C00000000000000000000000000000000000DB
:1055D00000000000000000000000000000000000CB
:1055E00000000000000000000000000000000000BB
:1055F00000000000000000000000000000000000AB
:1056000000000000CD0300000000010000000000C9
:10561000000000000000000000000000000000008A
:10562000000000000000000000000000000000007A
:0856300000000000DC05000091
:04000005000000C136
:00000001FF
